{
  "address": "0xdDE403a51520Ae5Caa4fa354FC5109d0E5B9C519",
  "abi": [
    {
      "inputs": [
        {
          "internalType": "address",
          "name": "_vrfcoordinator",
          "type": "address"
        },
        {
          "internalType": "address",
          "name": "_linktoken",
          "type": "address"
        },
        {
          "internalType": "bytes32",
          "name": "_keyhash",
          "type": "bytes32"
        },
        {
          "internalType": "uint256",
          "name": "_fee",
          "type": "uint256"
        }
      ],
      "stateMutability": "nonpayable",
      "type": "constructor"
    },
    {
      "anonymous": false,
      "inputs": [
        {
          "indexed": true,
          "internalType": "address",
          "name": "owner",
          "type": "address"
        },
        {
          "indexed": true,
          "internalType": "address",
          "name": "approved",
          "type": "address"
        },
        {
          "indexed": true,
          "internalType": "uint256",
          "name": "tokenId",
          "type": "uint256"
        }
      ],
      "name": "Approval",
      "type": "event"
    },
    {
      "anonymous": false,
      "inputs": [
        {
          "indexed": true,
          "internalType": "address",
          "name": "owner",
          "type": "address"
        },
        {
          "indexed": true,
          "internalType": "address",
          "name": "operator",
          "type": "address"
        },
        {
          "indexed": false,
          "internalType": "bool",
          "name": "approved",
          "type": "bool"
        }
      ],
      "name": "ApprovalForAll",
      "type": "event"
    },
    {
      "anonymous": false,
      "inputs": [
        {
          "indexed": true,
          "internalType": "address",
          "name": "from",
          "type": "address"
        },
        {
          "indexed": true,
          "internalType": "address",
          "name": "to",
          "type": "address"
        },
        {
          "indexed": true,
          "internalType": "uint256",
          "name": "tokenId",
          "type": "uint256"
        }
      ],
      "name": "Transfer",
      "type": "event"
    },
    {
      "anonymous": false,
      "inputs": [
        {
          "indexed": true,
          "internalType": "uint256",
          "name": "tokenId",
          "type": "uint256"
        },
        {
          "indexed": false,
          "internalType": "string",
          "name": "svg",
          "type": "string"
        }
      ],
      "name": "createdRandomSVG",
      "type": "event"
    },
    {
      "anonymous": false,
      "inputs": [
        {
          "indexed": true,
          "internalType": "uint256",
          "name": "tokenId",
          "type": "uint256"
        },
        {
          "indexed": true,
          "internalType": "uint256",
          "name": "randomNumber",
          "type": "uint256"
        }
      ],
      "name": "createdUnfinishedRandomSVG",
      "type": "event"
    },
    {
      "anonymous": false,
      "inputs": [
        {
          "indexed": true,
          "internalType": "bytes32",
          "name": "requestId",
          "type": "bytes32"
        },
        {
          "indexed": true,
          "internalType": "uint256",
          "name": "tokenId",
          "type": "uint256"
        }
      ],
      "name": "requestedRandomSVG",
      "type": "event"
    },
    {
      "inputs": [
        {
          "internalType": "address",
          "name": "to",
          "type": "address"
        },
        {
          "internalType": "uint256",
          "name": "tokenId",
          "type": "uint256"
        }
      ],
      "name": "approve",
      "outputs": [],
      "stateMutability": "nonpayable",
      "type": "function"
    },
    {
      "inputs": [
        {
          "internalType": "address",
          "name": "owner",
          "type": "address"
        }
      ],
      "name": "balanceOf",
      "outputs": [
        {
          "internalType": "uint256",
          "name": "",
          "type": "uint256"
        }
      ],
      "stateMutability": "view",
      "type": "function"
    },
    {
      "inputs": [
        {
          "internalType": "uint256",
          "name": "",
          "type": "uint256"
        }
      ],
      "name": "colors",
      "outputs": [
        {
          "internalType": "string",
          "name": "",
          "type": "string"
        }
      ],
      "stateMutability": "view",
      "type": "function"
    },
    {
      "inputs": [],
      "name": "create",
      "outputs": [
        {
          "internalType": "bytes32",
          "name": "_requestId",
          "type": "bytes32"
        }
      ],
      "stateMutability": "nonpayable",
      "type": "function"
    },
    {
      "inputs": [],
      "name": "fee",
      "outputs": [
        {
          "internalType": "uint256",
          "name": "",
          "type": "uint256"
        }
      ],
      "stateMutability": "view",
      "type": "function"
    },
    {
      "inputs": [
        {
          "internalType": "uint256",
          "name": "_tokenId",
          "type": "uint256"
        }
      ],
      "name": "finishMint",
      "outputs": [],
      "stateMutability": "nonpayable",
      "type": "function"
    },
    {
      "inputs": [
        {
          "internalType": "string",
          "name": "_imageURI",
          "type": "string"
        }
      ],
      "name": "formatTokenURI",
      "outputs": [
        {
          "internalType": "string",
          "name": "",
          "type": "string"
        }
      ],
      "stateMutability": "pure",
      "type": "function"
    },
    {
      "inputs": [
        {
          "internalType": "uint256",
          "name": "_randomness",
          "type": "uint256"
        }
      ],
      "name": "generatePath",
      "outputs": [
        {
          "internalType": "string",
          "name": "pathSvg",
          "type": "string"
        }
      ],
      "stateMutability": "view",
      "type": "function"
    },
    {
      "inputs": [
        {
          "internalType": "uint256",
          "name": "_randomNumber",
          "type": "uint256"
        }
      ],
      "name": "generatePathCommand",
      "outputs": [
        {
          "internalType": "string",
          "name": "pathCommand",
          "type": "string"
        }
      ],
      "stateMutability": "view",
      "type": "function"
    },
    {
      "inputs": [
        {
          "internalType": "uint256",
          "name": "_randomness",
          "type": "uint256"
        }
      ],
      "name": "generateSVG",
      "outputs": [
        {
          "internalType": "string",
          "name": "finalSvg",
          "type": "string"
        }
      ],
      "stateMutability": "view",
      "type": "function"
    },
    {
      "inputs": [
        {
          "internalType": "uint256",
          "name": "tokenId",
          "type": "uint256"
        }
      ],
      "name": "getApproved",
      "outputs": [
        {
          "internalType": "address",
          "name": "",
          "type": "address"
        }
      ],
      "stateMutability": "view",
      "type": "function"
    },
    {
      "inputs": [
        {
          "internalType": "address",
          "name": "owner",
          "type": "address"
        },
        {
          "internalType": "address",
          "name": "operator",
          "type": "address"
        }
      ],
      "name": "isApprovedForAll",
      "outputs": [
        {
          "internalType": "bool",
          "name": "",
          "type": "bool"
        }
      ],
      "stateMutability": "view",
      "type": "function"
    },
    {
      "inputs": [],
      "name": "keyhash",
      "outputs": [
        {
          "internalType": "bytes32",
          "name": "",
          "type": "bytes32"
        }
      ],
      "stateMutability": "view",
      "type": "function"
    },
    {
      "inputs": [],
      "name": "maxNumberofPathCommands",
      "outputs": [
        {
          "internalType": "uint256",
          "name": "",
          "type": "uint256"
        }
      ],
      "stateMutability": "view",
      "type": "function"
    },
    {
      "inputs": [],
      "name": "maxNumberofPaths",
      "outputs": [
        {
          "internalType": "uint256",
          "name": "",
          "type": "uint256"
        }
      ],
      "stateMutability": "view",
      "type": "function"
    },
    {
      "inputs": [],
      "name": "name",
      "outputs": [
        {
          "internalType": "string",
          "name": "",
          "type": "string"
        }
      ],
      "stateMutability": "view",
      "type": "function"
    },
    {
      "inputs": [
        {
          "internalType": "uint256",
          "name": "tokenId",
          "type": "uint256"
        }
      ],
      "name": "ownerOf",
      "outputs": [
        {
          "internalType": "address",
          "name": "",
          "type": "address"
        }
      ],
      "stateMutability": "view",
      "type": "function"
    },
    {
      "inputs": [
        {
          "internalType": "uint256",
          "name": "",
          "type": "uint256"
        }
      ],
      "name": "pathCommands",
      "outputs": [
        {
          "internalType": "string",
          "name": "",
          "type": "string"
        }
      ],
      "stateMutability": "view",
      "type": "function"
    },
    {
      "inputs": [
        {
          "internalType": "bytes32",
          "name": "requestId",
          "type": "bytes32"
        },
        {
          "internalType": "uint256",
          "name": "randomness",
          "type": "uint256"
        }
      ],
      "name": "rawFulfillRandomness",
      "outputs": [],
      "stateMutability": "nonpayable",
      "type": "function"
    },
    {
      "inputs": [
        {
          "internalType": "bytes32",
          "name": "",
          "type": "bytes32"
        }
      ],
      "name": "requestIdToSender",
      "outputs": [
        {
          "internalType": "address",
          "name": "",
          "type": "address"
        }
      ],
      "stateMutability": "view",
      "type": "function"
    },
    {
      "inputs": [
        {
          "internalType": "bytes32",
          "name": "",
          "type": "bytes32"
        }
      ],
      "name": "requestIdToTokenId",
      "outputs": [
        {
          "internalType": "uint256",
          "name": "",
          "type": "uint256"
        }
      ],
      "stateMutability": "view",
      "type": "function"
    },
    {
      "inputs": [
        {
          "internalType": "address",
          "name": "from",
          "type": "address"
        },
        {
          "internalType": "address",
          "name": "to",
          "type": "address"
        },
        {
          "internalType": "uint256",
          "name": "tokenId",
          "type": "uint256"
        }
      ],
      "name": "safeTransferFrom",
      "outputs": [],
      "stateMutability": "nonpayable",
      "type": "function"
    },
    {
      "inputs": [
        {
          "internalType": "address",
          "name": "from",
          "type": "address"
        },
        {
          "internalType": "address",
          "name": "to",
          "type": "address"
        },
        {
          "internalType": "uint256",
          "name": "tokenId",
          "type": "uint256"
        },
        {
          "internalType": "bytes",
          "name": "_data",
          "type": "bytes"
        }
      ],
      "name": "safeTransferFrom",
      "outputs": [],
      "stateMutability": "nonpayable",
      "type": "function"
    },
    {
      "inputs": [
        {
          "internalType": "address",
          "name": "operator",
          "type": "address"
        },
        {
          "internalType": "bool",
          "name": "approved",
          "type": "bool"
        }
      ],
      "name": "setApprovalForAll",
      "outputs": [],
      "stateMutability": "nonpayable",
      "type": "function"
    },
    {
      "inputs": [],
      "name": "size",
      "outputs": [
        {
          "internalType": "uint256",
          "name": "",
          "type": "uint256"
        }
      ],
      "stateMutability": "view",
      "type": "function"
    },
    {
      "inputs": [
        {
          "internalType": "bytes4",
          "name": "interfaceId",
          "type": "bytes4"
        }
      ],
      "name": "supportsInterface",
      "outputs": [
        {
          "internalType": "bool",
          "name": "",
          "type": "bool"
        }
      ],
      "stateMutability": "view",
      "type": "function"
    },
    {
      "inputs": [
        {
          "internalType": "string",
          "name": "_svg",
          "type": "string"
        }
      ],
      "name": "svgToImageURI",
      "outputs": [
        {
          "internalType": "string",
          "name": "",
          "type": "string"
        }
      ],
      "stateMutability": "pure",
      "type": "function"
    },
    {
      "inputs": [],
      "name": "symbol",
      "outputs": [
        {
          "internalType": "string",
          "name": "",
          "type": "string"
        }
      ],
      "stateMutability": "view",
      "type": "function"
    },
    {
      "inputs": [],
      "name": "tokenCounter",
      "outputs": [
        {
          "internalType": "uint256",
          "name": "",
          "type": "uint256"
        }
      ],
      "stateMutability": "view",
      "type": "function"
    },
    {
      "inputs": [
        {
          "internalType": "uint256",
          "name": "",
          "type": "uint256"
        }
      ],
      "name": "tokenIdToRandomNumber",
      "outputs": [
        {
          "internalType": "uint256",
          "name": "",
          "type": "uint256"
        }
      ],
      "stateMutability": "view",
      "type": "function"
    },
    {
      "inputs": [
        {
          "internalType": "uint256",
          "name": "tokenId",
          "type": "uint256"
        }
      ],
      "name": "tokenURI",
      "outputs": [
        {
          "internalType": "string",
          "name": "",
          "type": "string"
        }
      ],
      "stateMutability": "view",
      "type": "function"
    },
    {
      "inputs": [
        {
          "internalType": "address",
          "name": "from",
          "type": "address"
        },
        {
          "internalType": "address",
          "name": "to",
          "type": "address"
        },
        {
          "internalType": "uint256",
          "name": "tokenId",
          "type": "uint256"
        }
      ],
      "name": "transferFrom",
      "outputs": [],
      "stateMutability": "nonpayable",
      "type": "function"
    }
  ],
  "transactionHash": "0x9ed2e03dd9779a19a5bb32be64586c0755b0227cf62da01fa447e34c1ec4bce4",
  "args": [
    "0xb3dCcb4Cf7a26f6cf6B120Cf5A73875B7BBc655B",
    "0x01BE23585060835E02B77ef475b0Cc51aA1e0709",
    "0x2ed0feb3e7fd2022120aa84fab1945545a9f2ffc9076fd6156fa96eaff4c1311",
    "1000000000000000000"
  ],
  "numDeployments": 1,
  "solcInputHash": "eea2198da615c7ce41c5cca8222731f9",
  "bytecode": "0x60c06040523480156200001157600080fd5b5060405162004e5b38038062004e5b833981810160405281019062000037919062000588565b83836040518060400160405280600981526020017f52616e646f6d53564700000000000000000000000000000000000000000000008152506040518060400160405280600581526020017f72734e46540000000000000000000000000000000000000000000000000000008152508160009080519060200190620000bd92919062000357565b508060019080519060200190620000d692919062000357565b5050508173ffffffffffffffffffffffffffffffffffffffff1660a08173ffffffffffffffffffffffffffffffffffffffff1660601b815250508073ffffffffffffffffffffffffffffffffffffffff1660808173ffffffffffffffffffffffffffffffffffffffff1660601b81525050505081600881905550806009819055506000600a81905550600a600b819055506005600c819055506101f4600d8190555060405180604001604052806040518060400160405280600181526020017f4d0000000000000000000000000000000000000000000000000000000000000081525081526020016040518060400160405280600181526020017f4c00000000000000000000000000000000000000000000000000000000000000815250815250600e90600262000209929190620003e8565b506040518060a001604052806040518060400160405280600481526020017f426c75650000000000000000000000000000000000000000000000000000000081525081526020016040518060400160405280600381526020017f726564000000000000000000000000000000000000000000000000000000000081525081526020016040518060400160405280600681526020017f79656c6c6f77000000000000000000000000000000000000000000000000000081525081526020016040518060400160405280600481526020017f626c75650000000000000000000000000000000000000000000000000000000081525081526020016040518060400160405280600581526020017f7768697465000000000000000000000000000000000000000000000000000000815250815250600f9060056200034c9291906200044f565b5050505050620006ef565b82805462000365906200063c565b90600052602060002090601f016020900481019282620003895760008555620003d5565b82601f10620003a457805160ff1916838001178555620003d5565b82800160010185558215620003d5579182015b82811115620003d4578251825591602001919060010190620003b7565b5b509050620003e49190620004b6565b5090565b8280548282559060005260206000209081019282156200043c579160200282015b828111156200043b5782518290805190602001906200042a92919062000357565b509160200191906001019062000409565b5b5090506200044b9190620004d5565b5090565b828054828255906000526020600020908101928215620004a3579160200282015b82811115620004a25782518290805190602001906200049192919062000357565b509160200191906001019062000470565b5b509050620004b29190620004d5565b5090565b5b80821115620004d1576000816000905550600101620004b7565b5090565b5b80821115620004f95760008181620004ef9190620004fd565b50600101620004d6565b5090565b5080546200050b906200063c565b6000825580601f106200051f575062000540565b601f0160209004906000526020600020908101906200053f9190620004b6565b5b50565b6000815190506200055481620006a1565b92915050565b6000815190506200056b81620006bb565b92915050565b6000815190506200058281620006d5565b92915050565b600080600080608085870312156200059f57600080fd5b6000620005af8782880162000543565b9450506020620005c28782880162000543565b9350506040620005d5878288016200055a565b9250506060620005e88782880162000571565b91505092959194509250565b6000620006018262000612565b9050919050565b6000819050919050565b600073ffffffffffffffffffffffffffffffffffffffff82169050919050565b6000819050919050565b600060028204905060018216806200065557607f821691505b602082108114156200066c576200066b62000672565b5b50919050565b7f4e487b7100000000000000000000000000000000000000000000000000000000600052602260045260246000fd5b620006ac81620005f4565b8114620006b857600080fd5b50565b620006c68162000608565b8114620006d257600080fd5b50565b620006e08162000632565b8114620006ec57600080fd5b50565b60805160601c60a05160601c614739620007226000396000818161119801526125530152600061251701526147396000f3fe608060405234801561001057600080fd5b50600436106101f05760003560e01c806394985ddd1161010f578063bd11f69d116100a2578063ddca3f4311610071578063ddca3f431461063d578063e985e9c51461065b578063efc81a8c1461068b578063fbfcec29146106a9576101f0565b8063bd11f69d1461058f578063c68b49d1146105bf578063c87b56dd146105ef578063d082e3811461061f576101f0565b80639b4af476116100de5780639b4af476146105095780639c1cd79514610527578063a22cb46514610557578063b88d4fde14610573576101f0565b806394985ddd14610481578063949d225d1461049d578063955968d4146104bb57806395d89b41146104eb576101f0565b806333af59891161018757806369ebe78e1161015657806369ebe78e146103d35780636dcee4ca146103f157806370a082311461042157806371aee19314610451576101f0565b806333af59891461033b57806342842e0e1461036b578063624194c7146103875780636352211e146103a3576101f0565b8063219c0eee116101c3578063219c0eee1461028f57806322881f88146102bf57806323b872dd146102ef57806330d871c61461030b576101f0565b806301ffc9a7146101f557806306fdde0314610225578063081812fc14610243578063095ea7b314610273575b600080fd5b61020f600480360381019061020a91906130c2565b6106c7565b60405161021c9190613e4c565b60405180910390f35b61022d6107a9565b60405161023a9190613ef0565b60405180910390f35b61025d60048036038101906102589190613155565b61083b565b60405161026a9190613da7565b60405180910390f35b61028d60048036038101906102889190612ff8565b6108c0565b005b6102a960048036038101906102a4919061305d565b6109d8565b6040516102b69190613da7565b60405180910390f35b6102d960048036038101906102d4919061305d565b610a0b565b6040516102e69190614192565b60405180910390f35b61030960048036038101906103049190612ef2565b610a23565b005b61032560048036038101906103209190613114565b610a83565b6040516103329190613ef0565b60405180910390f35b61035560048036038101906103509190613155565b610b1c565b6040516103629190613ef0565b60405180910390f35b61038560048036038101906103809190612ef2565b610d08565b005b6103a1600480360381019061039c9190613155565b610d28565b005b6103bd60048036038101906103b89190613155565b610e97565b6040516103ca9190613da7565b60405180910390f35b6103db610f49565b6040516103e89190613e67565b60405180910390f35b61040b60048036038101906104069190613155565b610f4f565b6040516104189190613ef0565b60405180910390f35b61043b60048036038101906104369190612e8d565b61104b565b6040516104489190614192565b60405180910390f35b61046b60048036038101906104669190613114565b611103565b6040516104789190613ef0565b60405180910390f35b61049b60048036038101906104969190613086565b611196565b005b6104a5611232565b6040516104b29190614192565b60405180910390f35b6104d560048036038101906104d09190613155565b611238565b6040516104e29190613ef0565b60405180910390f35b6104f36112e4565b6040516105009190613ef0565b60405180910390f35b610511611376565b60405161051e9190614192565b60405180910390f35b610541600480360381019061053c9190613155565b61137c565b60405161054e9190614192565b60405180910390f35b610571600480360381019061056c9190612fbc565b611394565b005b61058d60048036038101906105889190612f41565b6113aa565b005b6105a960048036038101906105a49190613155565b61140c565b6040516105b69190613ef0565b60405180910390f35b6105d960048036038101906105d49190613155565b6114b8565b6040516105e69190613ef0565b60405180910390f35b61060960048036038101906106049190613155565b61166b565b6040516106169190613ef0565b60405180910390f35b6106276117bd565b6040516106349190614192565b60405180910390f35b6106456117c3565b6040516106529190614192565b60405180910390f35b61067560048036038101906106709190612eb6565b6117c9565b6040516106829190613e4c565b60405180910390f35b61069361185d565b6040516106a09190613e67565b60405180910390f35b6106b1611927565b6040516106be9190614192565b60405180910390f35b60007f80ac58cd000000000000000000000000000000000000000000000000000000007bffffffffffffffffffffffffffffffffffffffffffffffffffffffff1916827bffffffffffffffffffffffffffffffffffffffffffffffffffffffff1916148061079257507f5b5e139f000000000000000000000000000000000000000000000000000000007bffffffffffffffffffffffffffffffffffffffffffffffffffffffff1916827bffffffffffffffffffffffffffffffffffffffffffffffffffffffff1916145b806107a257506107a18261192d565b5b9050919050565b6060600080546107b8906144c3565b80601f01602080910402602001604051908101604052809291908181526020018280546107e4906144c3565b80156108315780601f1061080657610100808354040283529160200191610831565b820191906000526020600020905b81548152906001019060200180831161081457829003601f168201915b5050505050905090565b600061084682611997565b610885576040517f08c379a000000000000000000000000000000000000000000000000000000000815260040161087c906140b2565b60405180910390fd5b6004600083815260200190815260200160002060009054906101000a900473ffffffffffffffffffffffffffffffffffffffff169050919050565b60006108cb82610e97565b90508073ffffffffffffffffffffffffffffffffffffffff168373ffffffffffffffffffffffffffffffffffffffff16141561093c576040517f08c379a000000000000000000000000000000000000000000000000000000000815260040161093390614152565b60405180910390fd5b8073ffffffffffffffffffffffffffffffffffffffff1661095b611a03565b73ffffffffffffffffffffffffffffffffffffffff16148061098a575061098981610984611a03565b6117c9565b5b6109c9576040517f08c379a00000000000000000000000000000000000000000000000000000000081526004016109c090613fd2565b60405180910390fd5b6109d38383611a0b565b505050565b60106020528060005260406000206000915054906101000a900473ffffffffffffffffffffffffffffffffffffffff1681565b60116020528060005260406000206000915090505481565b610a34610a2e611a03565b82611ac4565b610a73576040517f08c379a0000000000000000000000000000000000000000000000000000000008152600401610a6a90614172565b60405180910390fd5b610a7e838383611ba2565b505050565b606060006040518060400160405280601a81526020017f646174613a696d6167652f7376672b786d6c3b6261736536342c00000000000081525090506000610ae984604051602001610ad59190613c57565b604051602081830303815290604052611dfe565b905060008282604051602001610b00929190613c6e565b6040516020818303038152906040529050809350505050919050565b606060006001600c5484610b309190614552565b610b3a91906142aa565b90506040518060400160405280600981526020017f3c7061746820643d270000000000000000000000000000000000000000000000815250915060005b81811015610bfc576000610bc28583600d54610b9391906142aa565b604051602001610ba49291906141ad565b6040516020818303038152906040528051906020012060001c6114b8565b90508381604051602001610bd7929190613c6e565b6040516020818303038152906040529350508080610bf4906144f5565b915050610b77565b506000600f808054905085610c119190614552565b81548110610c48577f4e487b7100000000000000000000000000000000000000000000000000000000600052603260045260246000fd5b906000526020600020018054610c5d906144c3565b80601f0160208091040260200160405190810160405280929190818152602001828054610c89906144c3565b8015610cd65780601f10610cab57610100808354040283529160200191610cd6565b820191906000526020600020905b815481529060010190602001808311610cb957829003601f168201915b505050505090508281604051602001610cf0929190613c92565b60405160208183030381529060405292505050919050565b610d23838383604051806020016040528060008152506113aa565b505050565b6000610d338261166b565b511115610d75576040517f08c379a0000000000000000000000000000000000000000000000000000000008152600401610d6c90614112565b60405180910390fd5b80600a5411610db9576040517f08c379a0000000000000000000000000000000000000000000000000000000008152600401610db090614052565b60405180910390fd5b6000601260008381526020019081526020016000205411610e0f576040517f08c379a0000000000000000000000000000000000000000000000000000000008152600401610e0690613f52565b60405180910390fd5b6000601260008381526020019081526020016000205490506000610e3282610f4f565b90506000610e3f82610a83565b90506000610e4c82611103565b9050610e588582611f9d565b847fb662a5131fe3646dc05ebcc07180161553152610daffb7bb78df70229f0fbe2a84604051610e889190613ef0565b60405180910390a25050505050565b6000806002600084815260200190815260200160002060009054906101000a900473ffffffffffffffffffffffffffffffffffffffff169050600073ffffffffffffffffffffffffffffffffffffffff168173ffffffffffffffffffffffffffffffffffffffff161415610f40576040517f08c379a0000000000000000000000000000000000000000000000000000000008152600401610f3790614012565b60405180910390fd5b80915050919050565b60085481565b606060006001600b5484610f639190614552565b610f6d91906142aa565b9050610f7a600d54612011565b610f85600d54612011565b604051602001610f96929190613d35565b604051602081830303815290604052915060005b81811015611022576000610fe88583604051602001610fca9291906141ad565b6040516020818303038152906040528051906020012060001c610b1c565b90508381604051602001610ffd929190613c6e565b604051602081830303815290604052935050808061101a906144f5565b915050610faa565b50816040516020016110349190613d13565b604051602081830303815290604052915050919050565b60008073ffffffffffffffffffffffffffffffffffffffff168273ffffffffffffffffffffffffffffffffffffffff1614156110bc576040517f08c379a00000000000000000000000000000000000000000000000000000000081526004016110b390613ff2565b60405180910390fd5b600360008373ffffffffffffffffffffffffffffffffffffffff1673ffffffffffffffffffffffffffffffffffffffff168152602001908152602001600020549050919050565b606060006040518060400160405280601d81526020017f646174613a6170706c69636174696f6e2f6a736f6e3b6261736536342c000000815250905060008161116a856040516020016111569190613d7a565b604051602081830303815290604052611dfe565b60405160200161117b929190613c6e565b60405160208183030381529060405290508092505050919050565b7f000000000000000000000000000000000000000000000000000000000000000073ffffffffffffffffffffffffffffffffffffffff163373ffffffffffffffffffffffffffffffffffffffff1614611224576040517f08c379a000000000000000000000000000000000000000000000000000000000815260040161121b90614132565b60405180910390fd5b61122e82826121e6565b5050565b600d5481565b600e818154811061124857600080fd5b906000526020600020016000915090508054611263906144c3565b80601f016020809104026020016040519081016040528092919081815260200182805461128f906144c3565b80156112dc5780601f106112b1576101008083540402835291602001916112dc565b820191906000526020600020905b8154815290600101906020018083116112bf57829003601f168201915b505050505081565b6060600180546112f3906144c3565b80601f016020809104026020016040519081016040528092919081815260200182805461131f906144c3565b801561136c5780601f106113415761010080835404028352916020019161136c565b820191906000526020600020905b81548152906001019060200180831161134f57829003601f168201915b5050505050905090565b600c5481565b60126020528060005260406000206000915090505481565b6113a661139f611a03565b838361228c565b5050565b6113bb6113b5611a03565b83611ac4565b6113fa576040517f08c379a00000000000000000000000000000000000000000000000000000000081526004016113f190614172565b60405180910390fd5b611406848484846123f9565b50505050565b600f818154811061141c57600080fd5b906000526020600020016000915090508054611437906144c3565b80601f0160208091040260200160405190810160405280929190818152602001828054611463906144c3565b80156114b05780601f10611485576101008083540402835291602001916114b0565b820191906000526020600020905b81548152906001019060200180831161149357829003601f168201915b505050505081565b6060600e8080549050836114cc9190614552565b81548110611503577f4e487b7100000000000000000000000000000000000000000000000000000000600052603260045260246000fd5b906000526020600020018054611518906144c3565b80601f0160208091040260200160405190810160405280929190818152602001828054611544906144c3565b80156115915780601f1061156657610100808354040283529160200191611591565b820191906000526020600020905b81548152906001019060200180831161157457829003601f168201915b505050505090506000600d54836002600d546115ad9190614368565b6040516020016115be9291906141ad565b6040516020818303038152906040528051906020012060001c6115e19190614552565b90506000600d54846003600d546115f89190614368565b6040516020016116099291906141ad565b6040516020818303038152906040528051906020012060001c61162c9190614552565b90508261163883612011565b61164183612011565b60405160200161165393929190613ccc565b60405160208183030381529060405292505050919050565b606061167682611997565b6116b5576040517f08c379a00000000000000000000000000000000000000000000000000000000081526004016116ac90614092565b60405180910390fd5b60006006600084815260200190815260200160002080546116d5906144c3565b80601f0160208091040260200160405190810160405280929190818152602001828054611701906144c3565b801561174e5780601f106117235761010080835404028352916020019161174e565b820191906000526020600020905b81548152906001019060200180831161173157829003601f168201915b50505050509050600061175f612455565b90506000815114156117755781925050506117b8565b6000825111156117aa578082604051602001611792929190613c6e565b604051602081830303815290604052925050506117b8565b6117b38461246c565b925050505b919050565b600a5481565b60095481565b6000600560008473ffffffffffffffffffffffffffffffffffffffff1673ffffffffffffffffffffffffffffffffffffffff16815260200190815260200160002060008373ffffffffffffffffffffffffffffffffffffffff1673ffffffffffffffffffffffffffffffffffffffff16815260200190815260200160002060009054906101000a900460ff16905092915050565b600061186d600854600954612513565b9050336010600083815260200190815260200160002060006101000a81548173ffffffffffffffffffffffffffffffffffffffff021916908373ffffffffffffffffffffffffffffffffffffffff1602179055506000600a5490508060116000848152602001908152602001600020819055506001600a546118ef91906142aa565b600a8190555080827fb97343f1f2afc4959f818046ccae28fd7b05fcd2b7a7dc651cbb52a096cae03560405160405180910390a35090565b600b5481565b60007f01ffc9a7000000000000000000000000000000000000000000000000000000007bffffffffffffffffffffffffffffffffffffffffffffffffffffffff1916827bffffffffffffffffffffffffffffffffffffffffffffffffffffffff1916149050919050565b60008073ffffffffffffffffffffffffffffffffffffffff166002600084815260200190815260200160002060009054906101000a900473ffffffffffffffffffffffffffffffffffffffff1673ffffffffffffffffffffffffffffffffffffffff1614159050919050565b600033905090565b816004600083815260200190815260200160002060006101000a81548173ffffffffffffffffffffffffffffffffffffffff021916908373ffffffffffffffffffffffffffffffffffffffff160217905550808273ffffffffffffffffffffffffffffffffffffffff16611a7e83610e97565b73ffffffffffffffffffffffffffffffffffffffff167f8c5be1e5ebec7d5bd14f71427d1e84f3dd0314c0f7b2291e5b200ac8c7c3b92560405160405180910390a45050565b6000611acf82611997565b611b0e576040517f08c379a0000000000000000000000000000000000000000000000000000000008152600401611b0590613fb2565b60405180910390fd5b6000611b1983610e97565b90508073ffffffffffffffffffffffffffffffffffffffff168473ffffffffffffffffffffffffffffffffffffffff161480611b8857508373ffffffffffffffffffffffffffffffffffffffff16611b708461083b565b73ffffffffffffffffffffffffffffffffffffffff16145b80611b995750611b9881856117c9565b5b91505092915050565b8273ffffffffffffffffffffffffffffffffffffffff16611bc282610e97565b73ffffffffffffffffffffffffffffffffffffffff1614611c18576040517f08c379a0000000000000000000000000000000000000000000000000000000008152600401611c0f906140d2565b60405180910390fd5b600073ffffffffffffffffffffffffffffffffffffffff168273ffffffffffffffffffffffffffffffffffffffff161415611c88576040517f08c379a0000000000000000000000000000000000000000000000000000000008152600401611c7f90613f72565b60405180910390fd5b611c93838383612675565b611c9e600082611a0b565b6001600360008573ffffffffffffffffffffffffffffffffffffffff1673ffffffffffffffffffffffffffffffffffffffff1681526020019081526020016000206000828254611cee91906143c2565b925050819055506001600360008473ffffffffffffffffffffffffffffffffffffffff1673ffffffffffffffffffffffffffffffffffffffff1681526020019081526020016000206000828254611d4591906142aa565b92505081905550816002600083815260200190815260200160002060006101000a81548173ffffffffffffffffffffffffffffffffffffffff021916908373ffffffffffffffffffffffffffffffffffffffff160217905550808273ffffffffffffffffffffffffffffffffffffffff168473ffffffffffffffffffffffffffffffffffffffff167fddf252ad1be2c89b69c2b068fc378daa952ba7f163c4a11628f55a4df523b3ef60405160405180910390a4505050565b6060600082511415611e2157604051806020016040528060008152509050611f98565b60006040518060600160405280604081526020016146c46040913990506000600360028551611e5091906142aa565b611e5a9190614337565b6004611e669190614368565b90506000602082611e7791906142aa565b67ffffffffffffffff811115611eb6577f4e487b7100000000000000000000000000000000000000000000000000000000600052604160045260246000fd5b6040519080825280601f01601f191660200182016040528015611ee85781602001600182028036833780820191505090505b509050818152600183018586518101602084015b81831015611f57576003830192508251603f8160121c168501518253600182019150603f81600c1c168501518253600182019150603f8160061c168501518253600182019150603f8116850151825360018201915050611efc565b600389510660018114611f715760028114611f8157611f8c565b613d3d60f01b6002830352611f8c565b603d60f81b60018303525b50505050508093505050505b919050565b611fa682611997565b611fe5576040517f08c379a0000000000000000000000000000000000000000000000000000000008152600401611fdc90614032565b60405180910390fd5b8060066000848152602001908152602001600020908051906020019061200c929190612c87565b505050565b60606000821415612059576040518060400160405280600181526020017f300000000000000000000000000000000000000000000000000000000000000081525090506121e1565b600082905060005b6000821461208b578080612074906144f5565b915050600a826120849190614337565b9150612061565b60008167ffffffffffffffff8111156120cd577f4e487b7100000000000000000000000000000000000000000000000000000000600052604160045260246000fd5b6040519080825280601f01601f1916602001820160405280156120ff5781602001600182028036833780820191505090505b50905060008290505b600086146121d95760018161211d91906143c2565b90506000600a808861212f9190614337565b6121399190614368565b8761214491906143c2565b60306121509190614300565b905060008160f81b905080848481518110612194577f4e487b7100000000000000000000000000000000000000000000000000000000600052603260045260246000fd5b60200101907effffffffffffffffffffffffffffffffffffffffffffffffffffffffffffff1916908160001a905350600a886121d09190614337565b97505050612108565b819450505050505b919050565b60006010600084815260200190815260200160002060009054906101000a900473ffffffffffffffffffffffffffffffffffffffff169050600060116000858152602001908152602001600020549050612240828261267a565b82601260008381526020019081526020016000208190555082817fea43dac1b92e3e24ce46727d896f6d773504b5b704a6485ed74673b7db4d736260405160405180910390a350505050565b8173ffffffffffffffffffffffffffffffffffffffff168373ffffffffffffffffffffffffffffffffffffffff1614156122fb576040517f08c379a00000000000000000000000000000000000000000000000000000000081526004016122f290613f92565b60405180910390fd5b80600560008573ffffffffffffffffffffffffffffffffffffffff1673ffffffffffffffffffffffffffffffffffffffff16815260200190815260200160002060008473ffffffffffffffffffffffffffffffffffffffff1673ffffffffffffffffffffffffffffffffffffffff16815260200190815260200160002060006101000a81548160ff0219169083151502179055508173ffffffffffffffffffffffffffffffffffffffff168373ffffffffffffffffffffffffffffffffffffffff167f17307eab39ab6107e8899845ad3d59bd9653f200f220920489ca2b5937696c31836040516123ec9190613e4c565b60405180910390a3505050565b612404848484611ba2565b61241084848484612698565b61244f576040517f08c379a000000000000000000000000000000000000000000000000000000000815260040161244690613f12565b60405180910390fd5b50505050565b606060405180602001604052806000815250905090565b606061247782611997565b6124b6576040517f08c379a00000000000000000000000000000000000000000000000000000000081526004016124ad906140f2565b60405180910390fd5b60006124c0612455565b905060008151116124e0576040518060200160405280600081525061250b565b806124ea8461282f565b6040516020016124fb929190613c6e565b6040516020818303038152906040525b915050919050565b60007f000000000000000000000000000000000000000000000000000000000000000073ffffffffffffffffffffffffffffffffffffffff16634000aea07f000000000000000000000000000000000000000000000000000000000000000084866000604051602001612587929190613e82565b6040516020818303038152906040526040518463ffffffff1660e01b81526004016125b493929190613e0e565b602060405180830381600087803b1580156125ce57600080fd5b505af11580156125e2573d6000803e3d6000fd5b505050506040513d601f19601f820116820180604052508101906126069190613034565b5060006126298460003060076000898152602001908152602001600020546129dc565b90506001600760008681526020019081526020016000205461264b91906142aa565b600760008681526020019081526020016000208190555061266c8482612a18565b91505092915050565b505050565b612694828260405180602001604052806000815250612a4b565b5050565b60006126b98473ffffffffffffffffffffffffffffffffffffffff16612aa6565b15612822578373ffffffffffffffffffffffffffffffffffffffff1663150b7a026126e2611a03565b8786866040518563ffffffff1660e01b81526004016127049493929190613dc2565b602060405180830381600087803b15801561271e57600080fd5b505af192505050801561274f57506040513d601f19601f8201168201806040525081019061274c91906130eb565b60015b6127d2573d806000811461277f576040519150601f19603f3d011682016040523d82523d6000602084013e612784565b606091505b506000815114156127ca576040517f08c379a00000000000000000000000000000000000000000000000000000000081526004016127c190613f12565b60405180910390fd5b805181602001fd5b63150b7a0260e01b7bffffffffffffffffffffffffffffffffffffffffffffffffffffffff1916817bffffffffffffffffffffffffffffffffffffffffffffffffffffffff191614915050612827565b600190505b949350505050565b60606000821415612877576040518060400160405280600181526020017f300000000000000000000000000000000000000000000000000000000000000081525090506129d7565b600082905060005b600082146128a9578080612892906144f5565b915050600a826128a29190614337565b915061287f565b60008167ffffffffffffffff8111156128eb577f4e487b7100000000000000000000000000000000000000000000000000000000600052604160045260246000fd5b6040519080825280601f01601f19166020018201604052801561291d5781602001600182028036833780820191505090505b5090505b600085146129d05760018261293691906143c2565b9150600a856129459190614552565b603061295191906142aa565b60f81b81838151811061298d577f4e487b7100000000000000000000000000000000000000000000000000000000600052603260045260246000fd5b60200101907effffffffffffffffffffffffffffffffffffffffffffffffffffffffffffff1916908160001a905350600a856129c99190614337565b9450612921565b8093505050505b919050565b6000848484846040516020016129f59493929190613eab565b6040516020818303038152906040528051906020012060001c9050949350505050565b60008282604051602001612a2d929190613c2b565b60405160208183030381529060405280519060200120905092915050565b612a558383612ab9565b612a626000848484612698565b612aa1576040517f08c379a0000000000000000000000000000000000000000000000000000000008152600401612a9890613f12565b60405180910390fd5b505050565b600080823b905060008111915050919050565b600073ffffffffffffffffffffffffffffffffffffffff168273ffffffffffffffffffffffffffffffffffffffff161415612b29576040517f08c379a0000000000000000000000000000000000000000000000000000000008152600401612b2090614072565b60405180910390fd5b612b3281611997565b15612b72576040517f08c379a0000000000000000000000000000000000000000000000000000000008152600401612b6990613f32565b60405180910390fd5b612b7e60008383612675565b6001600360008473ffffffffffffffffffffffffffffffffffffffff1673ffffffffffffffffffffffffffffffffffffffff1681526020019081526020016000206000828254612bce91906142aa565b92505081905550816002600083815260200190815260200160002060006101000a81548173ffffffffffffffffffffffffffffffffffffffff021916908373ffffffffffffffffffffffffffffffffffffffff160217905550808273ffffffffffffffffffffffffffffffffffffffff16600073ffffffffffffffffffffffffffffffffffffffff167fddf252ad1be2c89b69c2b068fc378daa952ba7f163c4a11628f55a4df523b3ef60405160405180910390a45050565b828054612c93906144c3565b90600052602060002090601f016020900481019282612cb55760008555612cfc565b82601f10612cce57805160ff1916838001178555612cfc565b82800160010185558215612cfc579182015b82811115612cfb578251825591602001919060010190612ce0565b5b509050612d099190612d0d565b5090565b5b80821115612d26576000816000905550600101612d0e565b5090565b6000612d3d612d3884614207565b6141d6565b905082815260208101848484011115612d5557600080fd5b612d60848285614481565b509392505050565b6000612d7b612d7684614237565b6141d6565b905082815260208101848484011115612d9357600080fd5b612d9e848285614481565b509392505050565b600081359050612db581614650565b92915050565b600081359050612dca81614667565b92915050565b600081519050612ddf81614667565b92915050565b600081359050612df48161467e565b92915050565b600081359050612e0981614695565b92915050565b600081519050612e1e81614695565b92915050565b600082601f830112612e3557600080fd5b8135612e45848260208601612d2a565b91505092915050565b600082601f830112612e5f57600080fd5b8135612e6f848260208601612d68565b91505092915050565b600081359050612e87816146ac565b92915050565b600060208284031215612e9f57600080fd5b6000612ead84828501612da6565b91505092915050565b60008060408385031215612ec957600080fd5b6000612ed785828601612da6565b9250506020612ee885828601612da6565b9150509250929050565b600080600060608486031215612f0757600080fd5b6000612f1586828701612da6565b9350506020612f2686828701612da6565b9250506040612f3786828701612e78565b9150509250925092565b60008060008060808587031215612f5757600080fd5b6000612f6587828801612da6565b9450506020612f7687828801612da6565b9350506040612f8787828801612e78565b925050606085013567ffffffffffffffff811115612fa457600080fd5b612fb087828801612e24565b91505092959194509250565b60008060408385031215612fcf57600080fd5b6000612fdd85828601612da6565b9250506020612fee85828601612dbb565b9150509250929050565b6000806040838503121561300b57600080fd5b600061301985828601612da6565b925050602061302a85828601612e78565b9150509250929050565b60006020828403121561304657600080fd5b600061305484828501612dd0565b91505092915050565b60006020828403121561306f57600080fd5b600061307d84828501612de5565b91505092915050565b6000806040838503121561309957600080fd5b60006130a785828601612de5565b92505060206130b885828601612e78565b9150509250929050565b6000602082840312156130d457600080fd5b60006130e284828501612dfa565b91505092915050565b6000602082840312156130fd57600080fd5b600061310b84828501612e0f565b91505092915050565b60006020828403121561312657600080fd5b600082013567ffffffffffffffff81111561314057600080fd5b61314c84828501612e4e565b91505092915050565b60006020828403121561316757600080fd5b600061317584828501612e78565b91505092915050565b613187816143f6565b82525050565b61319681614408565b82525050565b6131a581614414565b82525050565b6131bc6131b782614414565b61453e565b82525050565b60006131cd82614267565b6131d7818561427d565b93506131e7818560208601614490565b6131f08161463f565b840191505092915050565b600061320682614272565b613210818561428e565b9350613220818560208601614490565b6132298161463f565b840191505092915050565b600061323f82614272565b613249818561429f565b9350613259818560208601614490565b80840191505092915050565b600061327260328361428e565b91507f4552433732313a207472616e7366657220746f206e6f6e20455243373231526560008301527f63656976657220696d706c656d656e74657200000000000000000000000000006020830152604082019050919050565b60006132d8601c8361428e565b91507f4552433732313a20746f6b656e20616c7265616479206d696e746564000000006000830152602082019050919050565b6000613318601e8361428e565b91507f4e65656420746f207761697420666f7220636861696e6c696e6b2056524600006000830152602082019050919050565b6000613358600a8361429f565b91507f27207374726f6b653d27000000000000000000000000000000000000000000006000830152600a82019050919050565b600061339860248361428e565b91507f4552433732313a207472616e7366657220746f20746865207a65726f2061646460008301527f72657373000000000000000000000000000000000000000000000000000000006020830152604082019050919050565b60006133fe60198361428e565b91507f4552433732313a20617070726f766520746f2063616c6c6572000000000000006000830152602082019050919050565b600061343e602c8361428e565b91507f4552433732313a206f70657261746f7220717565727920666f72206e6f6e657860008301527f697374656e7420746f6b656e00000000000000000000000000000000000000006020830152604082019050919050565b60006134a460018361429f565b91507f20000000000000000000000000000000000000000000000000000000000000006000830152600182019050919050565b60006134e460038361429f565b91507f272f3e00000000000000000000000000000000000000000000000000000000006000830152600382019050919050565b600061352460388361428e565b91507f4552433732313a20617070726f76652063616c6c6572206973206e6f74206f7760008301527f6e6572206e6f7220617070726f76656420666f7220616c6c00000000000000006020830152604082019050919050565b600061358a602a8361428e565b91507f4552433732313a2062616c616e636520717565727920666f7220746865207a6560008301527f726f2061646472657373000000000000000000000000000000000000000000006020830152604082019050919050565b60006135f060298361428e565b91507f4552433732313a206f776e657220717565727920666f72206e6f6e657869737460008301527f656e7420746f6b656e00000000000000000000000000000000000000000000006020830152604082019050919050565b6000613656602e8361428e565b91507f45524337323155524953746f726167653a2055524920736574206f66206e6f6e60008301527f6578697374656e7420746f6b656e0000000000000000000000000000000000006020830152604082019050919050565b60006136bc60208361428e565b91507f546f6b656e496420686173206e6f74206265656e206d696e74656420796574216000830152602082019050919050565b60006136fc60028361429f565b91507f227d0000000000000000000000000000000000000000000000000000000000006000830152600282019050919050565b600061373c60208361428e565b91507f4552433732313a206d696e7420746f20746865207a65726f20616464726573736000830152602082019050919050565b600061377c60318361428e565b91507f45524337323155524953746f726167653a2055524920717565727920666f722060008301527f6e6f6e6578697374656e7420746f6b656e0000000000000000000000000000006020830152604082019050919050565b60006137e2602c8361428e565b91507f4552433732313a20617070726f76656420717565727920666f72206e6f6e657860008301527f697374656e7420746f6b656e00000000000000000000000000000000000000006020830152604082019050919050565b600061384860298361428e565b91507f4552433732313a207472616e73666572206f6620746f6b656e2074686174206960008301527f73206e6f74206f776e00000000000000000000000000000000000000000000006020830152604082019050919050565b60006138ae60308361429f565b91507f3c73766720786d6c6e733d27687474703a2f2f7777772e77332e6f72672f323060008301527f30302f73766727206865696768743d27000000000000000000000000000000006020830152603082019050919050565b6000613914602f8361428e565b91507f4552433732314d657461646174613a2055524920717565727920666f72206e6f60008301527f6e6578697374656e7420746f6b656e00000000000000000000000000000000006020830152604082019050919050565b600061397a601d8361428e565b91507f746f6b656e55524920697320616c726561647920616c6c2073657421210000006000830152602082019050919050565b60006139ba601f8361428e565b91507f4f6e6c7920565246436f6f7264696e61746f722063616e2066756c66696c6c006000830152602082019050919050565b60006139fa60218361428e565b91507f4552433732313a20617070726f76616c20746f2063757272656e74206f776e6560008301527f72000000000000000000000000000000000000000000000000000000000000006020830152604082019050919050565b6000613a6060318361428e565b91507f4552433732313a207472616e736665722063616c6c6572206973206e6f74206f60008301527f776e6572206e6f7220617070726f7665640000000000000000000000000000006020830152604082019050919050565b6000613ac660028361429f565b91507f273e0000000000000000000000000000000000000000000000000000000000006000830152600282019050919050565b6000613b0660528361429f565b91507f7b226e616d65223a2022535647204e4654222c20226465736372697074696f6e60008301527f223a2022416e204e4654206261736564206f6e20535647222c2261747472696260208301527f75746573223a22222c22696d616765223a2200000000000000000000000000006040830152605282019050919050565b6000613b9260068361429f565b91507f3c2f7376673e00000000000000000000000000000000000000000000000000006000830152600682019050919050565b6000613bd260098361429f565b91507f272077696474683d2700000000000000000000000000000000000000000000006000830152600982019050919050565b613c0e8161446a565b82525050565b613c25613c208261446a565b614548565b82525050565b6000613c3782856131ab565b602082019150613c478284613c14565b6020820191508190509392505050565b6000613c638284613234565b915081905092915050565b6000613c7a8285613234565b9150613c868284613234565b91508190509392505050565b6000613c9e8285613234565b9150613ca98261334b565b9150613cb58284613234565b9150613cc0826134d7565b91508190509392505050565b6000613cd88286613234565b9150613ce382613497565b9150613cef8285613234565b9150613cfa82613497565b9150613d068284613234565b9150819050949350505050565b6000613d1f8284613234565b9150613d2a82613b85565b915081905092915050565b6000613d40826138a1565b9150613d4c8285613234565b9150613d5782613bc5565b9150613d638284613234565b9150613d6e82613ab9565b91508190509392505050565b6000613d8582613af9565b9150613d918284613234565b9150613d9c826136ef565b915081905092915050565b6000602082019050613dbc600083018461317e565b92915050565b6000608082019050613dd7600083018761317e565b613de4602083018661317e565b613df16040830185613c05565b8181036060830152613e0381846131c2565b905095945050505050565b6000606082019050613e23600083018661317e565b613e306020830185613c05565b8181036040830152613e4281846131c2565b9050949350505050565b6000602082019050613e61600083018461318d565b92915050565b6000602082019050613e7c600083018461319c565b92915050565b6000604082019050613e97600083018561319c565b613ea46020830184613c05565b9392505050565b6000608082019050613ec0600083018761319c565b613ecd6020830186613c05565b613eda604083018561317e565b613ee76060830184613c05565b95945050505050565b60006020820190508181036000830152613f0a81846131fb565b905092915050565b60006020820190508181036000830152613f2b81613265565b9050919050565b60006020820190508181036000830152613f4b816132cb565b9050919050565b60006020820190508181036000830152613f6b8161330b565b9050919050565b60006020820190508181036000830152613f8b8161338b565b9050919050565b60006020820190508181036000830152613fab816133f1565b9050919050565b60006020820190508181036000830152613fcb81613431565b9050919050565b60006020820190508181036000830152613feb81613517565b9050919050565b6000602082019050818103600083015261400b8161357d565b9050919050565b6000602082019050818103600083015261402b816135e3565b9050919050565b6000602082019050818103600083015261404b81613649565b9050919050565b6000602082019050818103600083015261406b816136af565b9050919050565b6000602082019050818103600083015261408b8161372f565b9050919050565b600060208201905081810360008301526140ab8161376f565b9050919050565b600060208201905081810360008301526140cb816137d5565b9050919050565b600060208201905081810360008301526140eb8161383b565b9050919050565b6000602082019050818103600083015261410b81613907565b9050919050565b6000602082019050818103600083015261412b8161396d565b9050919050565b6000602082019050818103600083015261414b816139ad565b9050919050565b6000602082019050818103600083015261416b816139ed565b9050919050565b6000602082019050818103600083015261418b81613a53565b9050919050565b60006020820190506141a76000830184613c05565b92915050565b60006040820190506141c26000830185613c05565b6141cf6020830184613c05565b9392505050565b6000604051905081810181811067ffffffffffffffff821117156141fd576141fc614610565b5b8060405250919050565b600067ffffffffffffffff82111561422257614221614610565b5b601f19601f8301169050602081019050919050565b600067ffffffffffffffff82111561425257614251614610565b5b601f19601f8301169050602081019050919050565b600081519050919050565b600081519050919050565b600082825260208201905092915050565b600082825260208201905092915050565b600081905092915050565b60006142b58261446a565b91506142c08361446a565b9250827fffffffffffffffffffffffffffffffffffffffffffffffffffffffffffffffff038211156142f5576142f4614583565b5b828201905092915050565b600061430b82614474565b915061431683614474565b92508260ff0382111561432c5761432b614583565b5b828201905092915050565b60006143428261446a565b915061434d8361446a565b92508261435d5761435c6145b2565b5b828204905092915050565b60006143738261446a565b915061437e8361446a565b9250817fffffffffffffffffffffffffffffffffffffffffffffffffffffffffffffffff04831182151516156143b7576143b6614583565b5b828202905092915050565b60006143cd8261446a565b91506143d88361446a565b9250828210156143eb576143ea614583565b5b828203905092915050565b60006144018261444a565b9050919050565b60008115159050919050565b6000819050919050565b60007fffffffff0000000000000000000000000000000000000000000000000000000082169050919050565b600073ffffffffffffffffffffffffffffffffffffffff82169050919050565b6000819050919050565b600060ff82169050919050565b82818337600083830152505050565b60005b838110156144ae578082015181840152602081019050614493565b838111156144bd576000848401525b50505050565b600060028204905060018216806144db57607f821691505b602082108114156144ef576144ee6145e1565b5b50919050565b60006145008261446a565b91507fffffffffffffffffffffffffffffffffffffffffffffffffffffffffffffffff82141561453357614532614583565b5b600182019050919050565b6000819050919050565b6000819050919050565b600061455d8261446a565b91506145688361446a565b925082614578576145776145b2565b5b828206905092915050565b7f4e487b7100000000000000000000000000000000000000000000000000000000600052601160045260246000fd5b7f4e487b7100000000000000000000000000000000000000000000000000000000600052601260045260246000fd5b7f4e487b7100000000000000000000000000000000000000000000000000000000600052602260045260246000fd5b7f4e487b7100000000000000000000000000000000000000000000000000000000600052604160045260246000fd5b6000601f19601f8301169050919050565b614659816143f6565b811461466457600080fd5b50565b61467081614408565b811461467b57600080fd5b50565b61468781614414565b811461469257600080fd5b50565b61469e8161441e565b81146146a957600080fd5b50565b6146b58161446a565b81146146c057600080fd5b5056fe4142434445464748494a4b4c4d4e4f505152535455565758595a6162636465666768696a6b6c6d6e6f707172737475767778797a303132333435363738392b2fa264697066735822122088277b82e6cd5b81779128fd90250b75198d07f56a684e33aeaaf723edadd9da64736f6c63430008000033",
  "devdoc": {
    "kind": "dev",
    "methods": {
      "approve(address,uint256)": {
        "details": "See {IERC721-approve}."
      },
      "balanceOf(address)": {
        "details": "See {IERC721-balanceOf}."
      },
      "getApproved(uint256)": {
        "details": "See {IERC721-getApproved}."
      },
      "isApprovedForAll(address,address)": {
        "details": "See {IERC721-isApprovedForAll}."
      },
      "name()": {
        "details": "See {IERC721Metadata-name}."
      },
      "ownerOf(uint256)": {
        "details": "See {IERC721-ownerOf}."
      },
      "safeTransferFrom(address,address,uint256)": {
        "details": "See {IERC721-safeTransferFrom}."
      },
      "safeTransferFrom(address,address,uint256,bytes)": {
        "details": "See {IERC721-safeTransferFrom}."
      },
      "setApprovalForAll(address,bool)": {
        "details": "See {IERC721-setApprovalForAll}."
      },
      "supportsInterface(bytes4)": {
        "details": "See {IERC165-supportsInterface}."
      },
      "symbol()": {
        "details": "See {IERC721Metadata-symbol}."
      },
      "tokenURI(uint256)": {
        "details": "See {IERC721Metadata-tokenURI}."
      },
      "transferFrom(address,address,uint256)": {
        "details": "See {IERC721-transferFrom}."
      }
    },
    "version": 1
  },
  "userdoc": {
    "kind": "user",
    "methods": {},
    "version": 1
  },
  "storageLayout": {
    "storage": [
      {
        "astId": 291,
        "contract": "contracts/RandomSVG.sol:RandomSVG",
        "label": "_name",
        "offset": 0,
        "slot": "0",
        "type": "t_string_storage"
      },
      {
        "astId": 293,
        "contract": "contracts/RandomSVG.sol:RandomSVG",
        "label": "_symbol",
        "offset": 0,
        "slot": "1",
        "type": "t_string_storage"
      },
      {
        "astId": 297,
        "contract": "contracts/RandomSVG.sol:RandomSVG",
        "label": "_owners",
        "offset": 0,
        "slot": "2",
        "type": "t_mapping(t_uint256,t_address)"
      },
      {
        "astId": 301,
        "contract": "contracts/RandomSVG.sol:RandomSVG",
        "label": "_balances",
        "offset": 0,
        "slot": "3",
        "type": "t_mapping(t_address,t_uint256)"
      },
      {
        "astId": 305,
        "contract": "contracts/RandomSVG.sol:RandomSVG",
        "label": "_tokenApprovals",
        "offset": 0,
        "slot": "4",
        "type": "t_mapping(t_uint256,t_address)"
      },
      {
        "astId": 311,
        "contract": "contracts/RandomSVG.sol:RandomSVG",
        "label": "_operatorApprovals",
        "offset": 0,
        "slot": "5",
        "type": "t_mapping(t_address,t_mapping(t_address,t_bool))"
      },
      {
        "astId": 1243,
        "contract": "contracts/RandomSVG.sol:RandomSVG",
        "label": "_tokenURIs",
        "offset": 0,
        "slot": "6",
        "type": "t_mapping(t_uint256,t_string_storage)"
      },
      {
        "astId": 79,
        "contract": "contracts/RandomSVG.sol:RandomSVG",
        "label": "nonces",
        "offset": 0,
        "slot": "7",
        "type": "t_mapping(t_bytes32,t_uint256)"
      },
      {
        "astId": 2069,
        "contract": "contracts/RandomSVG.sol:RandomSVG",
        "label": "keyhash",
        "offset": 0,
        "slot": "8",
        "type": "t_bytes32"
      },
      {
        "astId": 2071,
        "contract": "contracts/RandomSVG.sol:RandomSVG",
        "label": "fee",
        "offset": 0,
        "slot": "9",
        "type": "t_uint256"
      },
      {
        "astId": 2073,
        "contract": "contracts/RandomSVG.sol:RandomSVG",
        "label": "tokenCounter",
        "offset": 0,
        "slot": "10",
        "type": "t_uint256"
      },
      {
        "astId": 2075,
        "contract": "contracts/RandomSVG.sol:RandomSVG",
        "label": "maxNumberofPaths",
        "offset": 0,
        "slot": "11",
        "type": "t_uint256"
      },
      {
        "astId": 2077,
        "contract": "contracts/RandomSVG.sol:RandomSVG",
        "label": "maxNumberofPathCommands",
        "offset": 0,
        "slot": "12",
        "type": "t_uint256"
      },
      {
        "astId": 2079,
        "contract": "contracts/RandomSVG.sol:RandomSVG",
        "label": "size",
        "offset": 0,
        "slot": "13",
        "type": "t_uint256"
      },
      {
        "astId": 2082,
        "contract": "contracts/RandomSVG.sol:RandomSVG",
        "label": "pathCommands",
        "offset": 0,
        "slot": "14",
        "type": "t_array(t_string_storage)dyn_storage"
      },
      {
        "astId": 2085,
        "contract": "contracts/RandomSVG.sol:RandomSVG",
        "label": "colors",
        "offset": 0,
        "slot": "15",
        "type": "t_array(t_string_storage)dyn_storage"
      },
      {
        "astId": 2089,
        "contract": "contracts/RandomSVG.sol:RandomSVG",
        "label": "requestIdToSender",
        "offset": 0,
        "slot": "16",
        "type": "t_mapping(t_bytes32,t_address)"
      },
      {
        "astId": 2093,
        "contract": "contracts/RandomSVG.sol:RandomSVG",
        "label": "requestIdToTokenId",
        "offset": 0,
        "slot": "17",
        "type": "t_mapping(t_bytes32,t_uint256)"
      },
      {
        "astId": 2097,
        "contract": "contracts/RandomSVG.sol:RandomSVG",
        "label": "tokenIdToRandomNumber",
        "offset": 0,
        "slot": "18",
        "type": "t_mapping(t_uint256,t_uint256)"
      }
    ],
    "types": {
      "t_address": {
        "encoding": "inplace",
        "label": "address",
        "numberOfBytes": "20"
      },
      "t_array(t_string_storage)dyn_storage": {
        "base": "t_string_storage",
        "encoding": "dynamic_array",
        "label": "string[]",
        "numberOfBytes": "32"
      },
      "t_bool": {
        "encoding": "inplace",
        "label": "bool",
        "numberOfBytes": "1"
      },
      "t_bytes32": {
        "encoding": "inplace",
        "label": "bytes32",
        "numberOfBytes": "32"
      },
      "t_mapping(t_address,t_bool)": {
        "encoding": "mapping",
        "key": "t_address",
        "label": "mapping(address => bool)",
        "numberOfBytes": "32",
        "value": "t_bool"
      },
      "t_mapping(t_address,t_mapping(t_address,t_bool))": {
        "encoding": "mapping",
        "key": "t_address",
        "label": "mapping(address => mapping(address => bool))",
        "numberOfBytes": "32",
        "value": "t_mapping(t_address,t_bool)"
      },
      "t_mapping(t_address,t_uint256)": {
        "encoding": "mapping",
        "key": "t_address",
        "label": "mapping(address => uint256)",
        "numberOfBytes": "32",
        "value": "t_uint256"
      },
      "t_mapping(t_bytes32,t_address)": {
        "encoding": "mapping",
        "key": "t_bytes32",
        "label": "mapping(bytes32 => address)",
        "numberOfBytes": "32",
        "value": "t_address"
      },
      "t_mapping(t_bytes32,t_uint256)": {
        "encoding": "mapping",
        "key": "t_bytes32",
        "label": "mapping(bytes32 => uint256)",
        "numberOfBytes": "32",
        "value": "t_uint256"
      },
      "t_mapping(t_uint256,t_address)": {
        "encoding": "mapping",
        "key": "t_uint256",
        "label": "mapping(uint256 => address)",
        "numberOfBytes": "32",
        "value": "t_address"
      },
      "t_mapping(t_uint256,t_string_storage)": {
        "encoding": "mapping",
        "key": "t_uint256",
        "label": "mapping(uint256 => string)",
        "numberOfBytes": "32",
        "value": "t_string_storage"
      },
      "t_mapping(t_uint256,t_uint256)": {
        "encoding": "mapping",
        "key": "t_uint256",
        "label": "mapping(uint256 => uint256)",
        "numberOfBytes": "32",
        "value": "t_uint256"
      },
      "t_string_storage": {
        "encoding": "bytes",
        "label": "string",
        "numberOfBytes": "32"
      },
      "t_uint256": {
        "encoding": "inplace",
        "label": "uint256",
        "numberOfBytes": "32"
      }
    }
  }
}